:100000000C94CB040C9412050C9412050C9433122E
:100010000C9412050C9412050C9412050C94120504
:100020000C9412050C9412050C9466270C94382835
:100030000C941A200C9412050C9412050C941205C1
:100040000C9412050C9412050C9412050C941205D4
:100050000C9412050C9473200C9412050C94120548
:100060000C9412050C9412050C9412050C941205B4
:100070000C9412050C9412050C9412050C941205A4
:100080000C9412050C9412050C9412050C94120594
:100090000C9412050C9412050C9412050C94120584
:1000A0000C9412050C9412050C9412059207A307E8
:1000B0009607A3079A07A307A307A3079E07A3070B
:1000C0009E07A3079E07A3079E074D164D167F1692
:1000D0007F161D18EC161D181D18F7169017A1177E
:1000E000A117C518C518D718D718CE18D718D718FC
:1000F000D718C518C518D318D718D718D318A528D6
:10010000CC28C429CC28C42918293B29C4299229E0
:10011000A129808182838485868788898A8B8C8DBA
:100120008E8F9091929394A0A1A2A3A4A5A6A7A814
:10013000A9AAABACADAEAFB0B1B2B3B4C0C1C2C38B
:10014000C4C5C6C7C8C9CACBCCCDCECFD0D1D2D3F7
:10015000D40041646A757374005261697365004C20
:100160006F7765720044656661756C74004C6179E7
:1001700065723A2000290014001A000800150017C3
:10018000002B4304001600070009000A0001551D5A
:10019000001B000600190005000000000000004CD4
:1001A000680254DA5C3100130012000C0018001CC5
:1001B00000344333000F000E000D000B00035538D0
:1001C000003700360010001100000000000000E6BB
:1001D000002A422C62290014001A000900130005AD
:1001E000002B4304001500160017000A0001551DDE
:1001F000001B000600070019000000000000004C72
:10020000680254DA5C310033001C0018000F000D46
:1002100000344312000C0008001100100003553890
:1002200000370036000B000E00000000000000E662
:10023000002A422C62010023002400250026002D04
:1002400002010035022602270227001E022F02307B
:10025000022F002F001F02240200000000000001F6
:10026000000100010000002200210020001F0020EA
:1002700002230233022E002D001E0021020100384D
:100280000037002E022502220200000000000001BB
:10029000000100010000523A003B003C003D003EDE
:1002A0000001523F004000410042004300E0001DB9
:1002B000011B0106011901390000000000000001C6
:1002C000000100010000004A004F11520050114B84
:1002D000003D044D004F00510050004E0003554CAE
:1002E00000511100005211490000000000000001FF
:1002F000000100010000AE00AF00DA0281FFD9F179
:10030000DB20A4A62EAF00A0C000A1C800AED580FF
:10031000A81FD300408D1420000000000000003E04
:100320005B4F5B3E003E6B4F6B3E001C3E7C3E1CB9
:1003300000183C7E3C18001C577D571C001C5E7F3B
:100340005E1C0000183C180000FFE7C3E7FF000038
:100350001824180000FFE7DBE7FF0030483A060EDC
:1003600000262979292600407F05050700407F05E2
:10037000253F005A3CE73C5A007F3E1C1C08000801
:100380001C1C3E7F0014227F2214005F5F005F5F11
:100390000006097F017F00006689956A0060606041
:1003A00060600094A2FFA2940008047E040800107C
:1003B000207E20100008082A1C0800081C2A0808B3
:1003C000001E10101010000C1E0C1E0C0030383EC9
:1003D000383000060E3E0E0600000000000000004F
:1003E000005F000000000700070000147F147F1466
:1003F00000242A7F2A12002313086462003649561B
:10040000205000000807030000001C2241000000EB
:1004100041221C00002A1C7F1C2A0008083E0808F4
:100420000000807030000008080808080000006024
:100430006000002010080402003E5149453E0000C3
:10044000427F4000007249494946002141494D33ED
:10045000001814127F10002745454539003C4A49D1
:100460004931004121110907003649494936004602
:100470004949291E0000001400000000403400001B
:100480000000081422410014141414140000412226
:100490001408000201590906003E415D594E007CD6
:1004A0001211127C007F49494936003E41414122E8
:1004B000007F4141413E007F49494941007F090990
:1004C0000901003E41415173007F0808087F000088
:1004D000417F4100002040413F01007F081422413C
:1004E000007F40404040007F021C027F007F0408E4
:1004F000107F003E4141413E007F09090906003E50
:100500004151215E007F0919294600264949493297
:100510000003017F0103003F4040403F001F204097
:10052000201F003F4038403F00631408146300035D
:1005300004780403006159494D4300007F41414163
:1005400000020408102000004141417F0004020124
:100550000204004040404040000003070800002023
:1005600054547840007F2844443800384444442898
:1005700000384444287F0038545454180000087E42
:100580000902001824241C78007F08040478000065
:10059000447D4000002040403D00007F1028440082
:1005A0000000417F4000007C04780478007C08044F
:1005B0000478003844444438007C18242418001877
:1005C0002424187C007C0804040800485454542453
:1005D0000004043F4424003C4040207C001C204098
:1005E000201C003C4030403C004428102844004C73
:1005F0009090907C004464544C44000008364100C4
:1006000000000077000000004136080000020102EF
:100610000402003C2623263C0000000000000000ED
:10062000000000000000000000C0E0F0F8F8180032
:10063000C0F0FCFEFFFFFFFFFFFFFF7E0000000099
:10064000000000000080C0E0E0E0E0E0E0E0E0C0AA
:10065000800000000080C0E0E0E0E0E0E0E0E0C01A
:1006600080000000E0E0C0C0E0E0E0E00000E0E08A
:10067000C0C0E0E0E0E0E0C0800000000080C0E03A
:10068000E0E0E0E0E0E0E0C080000000000000000A
:1006900000000000000000E0F0F0F0E0ECEEF7F306
:1006A0007020007C7C7C7E007E7E7E7F7F7F0000D1
:1006B00080C0E07E5B4F5BFEC00000C000DCD7DE88
:1006C000DEDED7DC00C000000000000000000000FB
:1006D000000000000000000000000000000000001A
:1006E0000000F8FCFEFFE000FFFFFFFFFFFF80FFC0
:1006F000FFFFFFFFFFFFFFFF1F07010000000000DB
:1007000000000000FFFFFF8100000000000081C327
:10071000C3C30000FFFFFF8100000000000081FF55
:10072000FFFF0000FFFFFF01000000000000FFFFCF
:10073000FF010000000001FFFFFF0000FFFFFF9D21
:100740001C1C1C1C1C1C9DDFDFDF000000000000C7
:10075000000000000000000F1F3F7F7F7F7F7F3F72
:100760001E0C001F1F1F3F003F3F3F7F7F7F003059
:100770007B7F7830202030787F3B0003000F7F0F95
:100780000F0F7F0F000300000000000000000000BA
:100790000000000000000000000000000000000059
:1007A0000000030F1F3F3F3F3F1F1F3F3F7F7F7FE3
:1007B0003F3F1F3F7F7F7F7F7C7878381C0F000092
:1007C00000000000000103070707070707070703EA
:1007D00001000000000103070707070707070703D9
:1007E00001000000070707000000000000000707E5
:1007F00007000000000000070707000000010307D2
:1008000007070707070707030100000000000000B3
:1008100000000000000000000000000000000000D8
:1008200000000000000000000000000000000000C8
:1008300000000000000000000000000000000000B8
:1008400000000000000000000000000000000000A8
:10085000000000000000000000480343006F007229
:10086000006E00650020004B006500790062006F9B
:100870000061007200640020005200650076002EC6
:10088000003100200028004C006500670061006313
:100890000079002000530070006C0069007400298A
:1008A000000000100366006F006F007300740061A9
:1008B000006E0000000403090409023B000201006D
:1008C000A0FA09040000010301010009211101003F
:1008D000012240000705810308000A090401000104
:1008E00003000000092111010001224F00070582C9
:1008F0000320000A12011001000000085346010005
:1009000001000102000105010902A101850209019E
:10091000A100050919012905150025019505750195
:1009200081029501750381010501093009311581A5
:10093000257F95027508810609381581257F950167
:1009400075088106050C0A38021581257F95017509
:10095000088106C0C005010906A101050719E029A3
:10096000E71500250195087501810295017508813B
:10097000010507190029FF150026FF0095067508D7
:100980008100050819012905950575019102950158
:1009900075039101C00011241FBECFEFDAE0DEBF66
:1009A000CDBF04B603FE27C08091CE049091CF0442
:1009B000A091D004B091D1048730904BA740B04BA8
:1009C000D1F41092CE041092CF041092D004109261
:1009D000D10414BE84B7877F84BF0FB6F894A8955E
:1009E00080916000886180936000109260000FBE6B
:1009F000E0E0F8E3099511E0A0E0B1E0E8E0FBE514
:100A000002C005900D92A23BB107D9F724E0A2EBFA
:100A1000B1E001C01D92AE3CB207E1F70E94A624EE
:100A20000C94822D0C940000CF93DF93A5E5B1E0E8
:100A300049E551E061E070E08D91E82FE295EF70BB
:100A4000F0E021A18F70EB0102C0CC0FDD1F8A9571
:100A5000E2F7CE019C2F9095922391A392A1892B2E
:100A600082A34A175B0741F7DF91CF91089508955C
:100A70000C9437050C943705209A559A289A5D9A5C
:100A800008955D9808955D9A089528980895289A84
:100A900008950E9405070E941405AFE4B1E041E00B
:100AA00050E08D91E82FE295EF70F0E021A18F707A
:100AB000BA0102C0660F771F8A95E2F7CB01962F25
:100AC0009095922391A392A1892B82A371E0A535E1
:100AD000B70739F70E943C05EAEBF1E0A2EBB1E081
:100AE00011921D9281E0E23CF807D1F70E94E606E0
:100AF0008093C2010C94A2088F929F92AF92BF92F2
:100B0000CF92DF92EF92FF920F931F93CF93DF93D9
:100B100080910101811103C0C4E0D0E002C0C0E0B7
:100B2000D0E0AE014E545E4F7A0185E5C82E81E0DB
:100B3000D82E8A01912CAA24A394B12C25E0822ED0
:100B4000F9E5CF16F1E0DF0609F44CC0F60181911A
:100B50006F01E82FE295EF70F0E021A18F70A50101
:100B600002C0440F551F8A95E2F7CA01922F982BB5
:100B700091A392A18095892382A350EA5A95F1F717
:100B8000EFE4F1E020E040E050E03191A32FA295A6
:100B9000AF70B0E090968C9190E03F7002C0959558
:100BA00087953A95E2F780FD07C0C501042E01C084
:100BB000880F0A94EAF702C080E090E0282B4F5F8C
:100BC0005F4F4630510509F7F8018081821729F0FF
:100BD000208380920001992493940E9414050F5F52
:100BE0001F4FAECF809100018823B1F081508093D8
:100BF0000001811103C0C654DE4F07C08FE99FE09A
:100C00000197F1F700C0000007C0F70191917F0143
:100C100099938F5F8430C9F7892DDF91CF911F9110
:100C20000F91FF90EF90DF90CF90BF90AF909F908B
:100C30008F900895CF93DF9320910101211103C07C
:100C4000C0E0D0E002C0C4E0D0E00E9420070097DE
:100C500029F00297B1F40E94450513C00E94470590
:100C6000C654DE4F8091CE019091CF01A091D0016A
:100C7000B091D10188839983AA83BB8380E090E0FF
:100C800002C081E090E0DF91CF9108950E947C0541
:100C900090910101911103C0E4E0F0E002C0E0E0B6
:100CA000F0E0E654FE4F20E030E090E0D901A2539E
:100CB000BE4F5C914191541391E04C932F5F3F4F95
:100CC0002430310599F72091C701920F9093C70105
:100CD00008951F93CF93DF938091C201882309F475
:100CE00049C00E947C05182F80910101811103C029
:100CF000C4E0D0E002C0C0E0D0E0C654DE4F44E023
:100D000050E0BE018AEC91E00E943B2A4881598163
:100D10006A817B814093CA015093CB016093CC01DF
:100D20007093CD010E941A06892BC9F00E944105DB
:100D30008091C3018F5F8093C3018630A0F08091C2
:100D40000101811103C0E0E0F0E002C0E4E0F0E066
:100D5000E654FE4F108211821282138204C00E9458
:100D600043051092C3010E94AA08C1E0111122C0DC
:100D7000C0E020C00E944606C1E0811101C0C0E071
:100D800080910101811103C080E090E002C084E005
:100D900090E0FC01E654FE4F4091CA015091CB0116
:100DA0006091CC017091CD01408351836283738344
:100DB0000E94AA088C2FDF91CF911F910895E82FF0
:100DC000F0E0E654FE4F8081089508958091C401BB
:100DD000811112C08091D80080618093D8008AE18F
:100DE0008A95F1F700C08091D90080FD02C082E0B1
:100DF00001C081E08093C40181E09091C4019130F1
:100E000009F080E008950C94E6060E9403078093A1
:100E100001010E94E606882319F00E94140702C00F
:100E20000E941A077894089563E070E082E091E0F0
:100E30000C94E11163E070E082E091E00C94EA111F
:100E40000F931F93CF93DF938C0190911B0180919F
:100E50001A01981761F082E090E00E94C312EC0141
:100E6000892B39F480911A0180931B0102C0C0E0E4
:100E7000D0E0012B49F48091C5019091C601892BE6
:100E800019F480E090E002C081E090E00E94C3127B
:100E9000892B49F48091C70180931A011092C601F1
:100EA0001092C50106C081E090E09093C601809346
:100EB000C501CE01DF91CF911F910F9108950C9440
:100EC0003805FC018081813021F483E392E00C94A9
:100ED000280883E30C948315FC018081813021F480
:100EE00083E392E00C943E0883E30C94BE1590914A
:100EF000C201911101C082E0089560E08DE691E0A9
:100F00000E945B0C8091860290918702A0918802DA
:100F1000B09189028F309105B0F4FC01EA5AFF4F7D
:100F20000C942C2A60E085E691E00BC060E08FE530
:100F300091E007C060E089E591E003C060E082E5F0
:100F400091E00C946D0C08959C013056211540E2FF
:100F5000340720F0305E2115304108F499278C3396
:100F6000910528F4FC01E259FE4F208101C020E2E6
:100F70001F922F939F938F93FB0180811F928F93DA
:100F800081811F928F938DE591E09F938F931F92A4
:100F900088E18F9382ED91E09F938F930E94482A7E
:100FA0008DB79EB70E960FB6F8949EBF0FBE8DBF3D
:100FB000089560E082ED91E00C943F0C60E082E1E6
:100FC00091E00C945B0C8091C201882321F00E9477
:100FD0007D070C94D9070C94DE07FB0122812111B7
:100FE0000E94A40781E008958C32924611F080E0BF
:100FF000089581E008959C013A9521153F4138F507
:10100000DC01AA27B270AC01442754709C0122274E
:10101000387094FF0FC090FF02C080E101C080E0F3
:10102000AB2B09F08062452B09F08064232B69F01B
:1010300080680BC0892F8170AB2B09F08260452B33
:1010400009F08460232B09F08860FB01099408955E
:10105000CF93DF93EC01805E9109089710F0209701
:1010600019F465E076E102C063E978E1CE010E94FF
:10107000FB078C2FDF91CF910C948315CF93DF93D7
:10108000EC010E94BE15CE01805E9109089710F018
:10109000209719F46CE076E102C06AE978E1CE01AC
:1010A000DF91CF910C94FB0781E008950C94ED073C
:1010B00008950C9458081F93CF93DF9300D000D06D
:1010C0001F92CDB7DEB749835A836B8330912F02CD
:1010D00089819A81311114C0662359F0222349F085
:1010E0000E94861D182F682F89819A810E942D1DCC
:1010F00003C00E94591D182F69817A81812F04C075
:101100000E94861D69817A810F900F900F900F9039
:101110000F90DF91CF911F910C941509FC01262FA0
:10112000408151816281738184810C945B08CF93EB
:10113000DF93EC0160E00E948E08BE01DF91CF9149
:101140000C9459080E94C81E811102C00E946F1F92
:101150000C945F070E9429110C943A0508950E948F
:10116000B3180E94AE082FEF84E39CE0215080402A
:101170009040E1F700C000000C9499200F931F935A
:10118000CF93DF93EC0161E00E948E088C01BE01D9
:101190000E948610BE01C8010E945608882379F17A
:1011A000BE01C8010E94CD10882349F1BE01C801CB
:1011B0000E94760E882319F1BE01C8010E94C80E54
:1011C0008823E9F0BE01C8010E94F30F8823B9F01B
:1011D0008A81882369F001158CE5180731F00F3DED
:1011E0001C4531F40E946F1F0AC00E94AF0807C05F
:1011F000CE01DF91CF911F910F910C94540880E0A4
:10120000DF91CF911F910F91089508950C940509D6
:1012100081E008950C940809CF93C82F0E94060915
:101220008C2F0E940A09CF91089520E3829FC0016C
:101230001124FC0126E0729FE00DF11D1124E60F40
:10124000F11DEE0FFF1FEB58FE4F8591949108950D
:10125000CF93DF930E9415090E94050AEC018115C6
:10126000924580F5C11581E5D80708F095C0CF3FBC
:10127000D10509F0B8F4C03FD10508F06CC0C53AFB
:10128000D10548F4C430D10508F0BBC0C130D10548
:1012900009F4B7C0B4C0CE01805E9109089708F484
:1012A000B0C0ADC0C11590E5D90708F059C0C1154F
:1012B00020E4D20708F051C0C11580E2D80708F435
:1012C000A0C09DC0C11596E5D90718F5C11525E543
:1012D000D20708F07AC0C11584E5D80708F070C0BD
:1012E0009E01237033278C2F86958695C115D34593
:1012F00008F057C0C1E0D0E002C0CC0FDD1F2A9536
:10130000E2F720E2829FC0011124C82BD92BDC68B0
:1013100078C0C1152AE5D20778F4C11589E5D80748
:1013200008F05DC0C11598E5D90708F468C0DC2F46
:10133000CC27C06FD06A65C0CE019056811590420F
:1013400008F05DC08D2F8F710E94990ADD27D06251
:101350008F71D82B56C0D06554C0DF70D06A51C091
:10136000CE0174E0969587957A95E1F783709C2F6E
:10137000937021E030E002C0220F331F9A95E2F70C
:101380003C68382BCF70C695C69580E2C89FE001B7
:101390001124C22BD32B35C0DC2FCC27C16FD06AD0
:1013A00030C0C1E0D0E002C0CC0FDD1F2A95E2F7CB
:1013B00020E2829FC0011124C82BD92BDA6821C0FA
:1013C000DC2FCC27C46FD06A1CC08C2F0E94990AD6
:1013D0008F71C82FD0E0DC2FCC27D06212C08C2FA9
:1013E0008F700E94990A94E0D695C7959A95E1F777
:1013F000CF70D0E0DC2FCC27D069C82B02C0C0E072
:10140000D0E0CE01DF91CF9108958238910569F146
:10141000B0F48133910509F46DC048F48932910527
:1014200009F463C08A32910509F469C008958533CF
:10143000910509F455C089339105B9F00895833EAB
:10144000910569F138F4803E9105B1F0823E910535
:1014500009F10895863E9105A9F1873E9105B9F1FC
:10146000843E910509F064C023C02091BF0420FD93
:101470004FC021FD4DC008958091BF0480FD44C040
:101480008091C00480FF44C08091BF0484FD42C0AD
:1014900083EE4DC08091BF0482FF38C0F5CF8091AC
:1014A000BF0482FD33C08091C00480FD31C0ECCF09
:1014B0008091C00481FF32C08091BF0484FD2AC0A6
:1014C00087EE35C08091BF0483FF26C0F5CF8091A1
:1014D000BF0483FD21C08091C00481FD1FC0ECCFFB
:1014E0008091BF0485FD1CC01DC08091BF0485FD97
:1014F00019C016C08091BF0486FD16C017C0809128
:10150000BF0486FD13C010C089E311C082EE0FC076
:1015100080EE0DC080E00BC086EE09C084EE07C0EF
:1015200089E205C085E303C08AE201C081E390E05F
:1015300008959091BF0492FF0DC0282F2871283084
:1015400019F4877F846006C0282F2471243011F499
:101550008B7F886093FF0DC0282F2871283119F4E4
:10156000877E846106C0282F2471243111F48B7E7C
:1015700088612091C00420FF0DC0382F38713830A9
:1015800019F4877F816006C0382F3171313011F432
:101590008E7F886021FF0DC0282F2871283119F413
:1015A000877E816106C0282F2171213111F48E7E42
:1015B000886194FD877E0895EF92FF920F931F93A9
:1015C000CF93DF93EC017B0164E670E088E70E9433
:1015D0004C138C01EC0EFD1ECE15DF0561F017FDDE
:1015E0000AC0FE01849164E670E00E94A3138C019E
:1015F0002196892B89F30E942714C801DF91CF918E
:101600001F910F91FF90EF900895E5EBF2E080E0DD
:1016100092E0DF019C011D9221503040E1F7F093F0
:10162000BA04E093B9048FEF9FEF90931602809372
:10163000150208950E9477078093110280FD02C071
:1016400080E801C080E2809310020E9446136DE0A2
:1016500070E08CE093E00E94DC0A892B11F080E0BE
:1016600008958091110263E070E081FD03C089E07C
:1016700093E002C086E093E00E94DC0A892B79F7B0
:101680006DE070E089EF92E00E94DC0A892B39F767
:101690000E945820DC01CB01805A9541AF4FBF4FCB
:1016A0008093B5049093B604A093B704B093B804A4
:1016B0000E94050B81E08093140280931302109224
:1016C000120208952091100236E0839FC001112478
:1016D000629F800D911D1124811522E0920714F064
:1016E00080E090E08B549D4F9093BA048093B904AE
:1016F00008952091B9043091BA042F5A3240409194
:101700001002642F70E0C9010E94042A481B463071
:1017100010F4240F311D211582E0380710F020E06D
:1017200030E02B543D4F3093BA042093B904089510
:10173000CF93DF938A3011F481E003C08D3029F418
:1017400080E0DF91CF910C940E0CC62F682F809112
:10175000B9049091BA0426E0FC01AAEEB1E0019030
:101760000D922A95E1F7603E30F026E0FC011192DF
:101770002A95E9F70AC0F6E06F9FB0011124675E71
:101780007C4F46E050E00E94322AC11135C0C09122
:10179000B904D091BA0446E050E0BE018AEE91E06F
:1017A0000E943B2A892BB1F1C55BD2409E0185E0A6
:1017B000369527958A95E1F781E090E0AC0102C06B
:1017C000440F551F2A95E2F7209115023091160219
:1017D000242B352B259645E0D695C7954A95E1F7FC
:1017E00002C0880F991FCA95E2F7822B932B909322
:1017F0001602809315020EC0E091B904F091BA046C
:101800009F012A5F3F4F2E173F0709F28081809585
:101810008193F9CFDF91CF910C94790BCF93E82F7F
:101820002091B9043091BA04255B324040911002F6
:10183000642F70E0C9010E94042A481B842FEE2304
:1018400059F066E00E94F829C82FC150B0F060E05E
:1018500080E20E94980BF9CFA901480F511D411554
:10186000524018F080E020E030E0280F311D2B546A
:101870003D4F3093BA042093B904CF910895FF925D
:101880000F931F93CF93DF93EC01F62EFC01019091
:101890000020E9F78F0101501109C017D10728F482
:1018A0006F2D89910E94980BF8CFDF91CF911F91F6
:1018B0000F91FF9008951F93CF93DF93EC01162FA4
:1018C000FE018491882329F0612F0E94980B2196B4
:1018D000F7CFDF91CF911F9108950E945B0C81E0BB
:1018E0000C940E0C809114028823F9F00E94582069
:1018F000DC01CB01805A9541AF4FBF4F8093B504B7
:101900009093B604A093B704B093B80480911302E7
:1019100081110BC062E070E087EF92E00E94DC0A68
:10192000892B19F481E080931302809113020895AA
:101930006F927F928F929F92AF92BF92CF92DF92DF
:10194000EF92FF920F931F93CF93DF938091140236
:10195000882309F4DCC0209115023091160221156C
:10196000310509F4D4C0809112028111D0C061E028
:1019700070E0082F10E03B01082E02C0660C771CB7
:101980000A94E2F7A90146215721452B11F48F5FF4
:10199000F0CF90911102980165E0220F331F6A95F4
:1019A000E1F790FD12C08295880F80768093340114
:1019B000220F232F221F330B319520933701815E95
:1019C000809335011092380112C045E03695279575
:1019D0004A95E1F7220F220F220F20933401109233
:1019E0003701295F2093350183E08093380124E695
:1019F00030E047E050E062E371E088E70E94D313F3
:101A0000892B09F084C08091110280FD23C0A801B8
:101A100095E0440F551F9A95E1F74B545D4F04E64E
:101A200010E020E230E060E488E70E94FA13892B9E
:101A300009F06DC00E94720CE301C095D0958091B1
:101A4000150290911602C823D923D0931602C09391
:101A500015025DC080E2E0EFF1E0DF011D928A95A2
:101A6000E9F785E0000F111F8A95E1F7AEEAB1E0D2
:101A70004AEA51E0992493942D91EA018991AE01AB
:101A8000B801680F711D6B547D4F30E020513E4FFF
:101A9000F90197E07F01E21AF30AA92C01C0AA0C10
:101AA000EA94EAF77B01B12CE70189917E018A2152
:101AB000892E8B18D82DD770CD2E0D2E000CDD0859
:101AC000C82F01C0CC0FDA95EAF7D194C194D108A0
:101AD000D7E0CD22DD2401C08695CA94EAF78C2B8D
:101AE000D0808D298083B39488E0B812DDCF9150E7
:101AF00031969F3F79F6C1E0A23BBC0709F0BCCF0D
:101B000004E610E020E230E040EF51E08CCFDF91BE
:101B1000CF911F910F91FF90EF90DF90CF90BF90EA
:101B2000AF909F908F907F906F9008958091140256
:101B300090911302882389F0992369F062E070E0A4
:101B400085EF92E00E94DC0A892B19F08091130244
:101B50000895109213029091130281E0892708954D
:101B60000F931F9380911402882329F160E080E095
:101B70000E94620B0E94E3070E94980C809113025E
:101B80008823C9F00E9458200091B5041091B60432
:101B90002091B7043091B804DC01CB01801B910B7C
:101BA000A20BB30B8F3F9F4FAF4FBF4720F41F9146
:101BB0000F910C94960D1F910F910895AF92BF92C3
:101BC000CF92DF92EF92FF920F931F93CF93DF9309
:101BD0007C015B01C42FD22FFC0182818823F9F0A4
:101BE000409319020E944C20909318028093170290
:101BF00080E28C0F883008F06EC0C77081E001C0B1
:101C0000880FCA95EAF7DF91CF911F910F91FF904E
:101C1000EF90DF90CF90BF90AF900C94051680911D
:101C20001902481335C080911702909118020E9442
:101C300064206C01B701C5010E946C1BC816D9064F
:101C400038F510E21D0FCD17B9F080E28C0F883007
:101C500040F4C77081E001C0880FCA95EAF70E947E
:101C60000C16183058F581E09D2F977001C0880F31
:101C70009A95EAF70E940516802F0E94F2151830F7
:101C800050F5D77081E001C0880FDA95EAF70AC0F5
:101C900080E28C0F8830F8F4C77081E001C0880FB3
:101CA000CA95EAF7DF91CF911F910F91FF90EF90C6
:101CB000DF90CF90BF90AF900C940C16802FDF91E7
:101CC000CF911F910F91FF90EF90DF90CF90BF9039
:101CD000AF900C94F215DF91CF911F910F91FF906F
:101CE000EF90DF90CF90BF90AF9008950F939C013D
:101CF000CB01243F4CE5340731F188F4293DFCE564
:101D00003F07D9F02A3D4CE5340779F1283D3C45A1
:101D1000A9F506E221EE41EE68ED7CE52BC0263FF9
:101D2000FCE53F07E1F0A8F0273F3C4539F507E225
:101D300025EE46EE67EF7CE51DC007E225EE45EE99
:101D400069ED7CE517C006E221EE40EE64EF7CE52C
:101D500011C007E225EE44EE65EF7CE50BC006E21C
:101D600021EE42EE66EF7CE505C008E221E045EE9B
:101D70006AED7CE50E94DE0D80E008C0FC018281F6
:101D8000882319F01092190201C081E00F91089583
:101D9000CF93DF93EC01FB018281882309F41FC1FB
:101DA000C230FCE5DF0708F41BC1C6319CE5D9074A
:101DB00038F09E012B5F3C452930310508F010C1F9
:101DC0000E94DB1E9093C0048093BF04C031ECE5F9
:101DD000DE0709F4C3C008F041C0C8308CE5D8075D
:101DE00009F49AC0F0F4C430ECE5DE0709F487C0CA
:101DF00068F4C2308CE5D80709F477C0C330DC45FD
:101E000009F0E3C08091BF04826076C0C630ECE583
:101E1000DE0709F46EC008F07BC08091BF048860C3
:101E20006BC0CC308CE5D80709F485C068F4CA30A3
:101E3000ECE5DE0709F474C008F079C00E94B3181D
:101E40008091BF04806858C0CE308CE5D80709F473
:101E500076C008F07FC08091BF048BC0CC3FECE51A
:101E6000DE0709F44FC018F5C3318CE5D80709F433
:101E70007DC078F4C131ECE5DE0709F473C0C231EE
:101E8000DC4509F0A2C00E94B3188091BF048F778F
:101E900033C0C5318CE5D80709F472C008F486C098
:101EA000CB3FDC4509F091C08091C0043EC0C11514
:101EB000FDE5DF0709F45FC058F4CE3F9CE5D90784
:101EC00009F444C008F43FC08091C00482602DC072
:101ED000C230FDE5DF0709F475C008F45DC0C3300A
:101EE000DD4509F072C080E06EC08091BF04816062
:101EF00003C08091BF0480618093BF0466C080915D
:101F0000BF0411C08091C00482608093C0045DC092
:101F10008091BF048062F0CF8091BF048064ECCFD9
:101F20008091BF0488608460E7CF8160EECF8091AC
:101F3000BF048E7FE1CF8091BF048D7FDDCF809184
:101F4000BF04877FD9CF8091C00418C08091C0049E
:101F50008D7FDBCF8091BF048F7ECECF8091BF0479
:101F60008F7DCACF8091BF048F7BC6CF8091BF0485
:101F7000877F8B7FC1CF8091C0048D7F8E7FC5CF3F
:101F80008091BF0482FB222720F991E0922790FBE9
:101F900082F990FB83F9B0CF8091C004982F90957F
:101FA00091708E7F892B90FB81F9AFCF0E94B3187F
:101FB0008091BF0487FB222720F991E0922790FBB4
:101FC00087F99ACF81E00E94711F8091BF049091A0
:101FD000C0040E94EC1E0E94B31880E001C081E0A2
:101FE000DF91CF910895CF93DF9386319C4541F5E2
:101FF000EB010E940A1E982F8A8120913A013091AC
:102000003B01882379F09A7A81E009F480E080939B
:102010001A02911102C069E201C065E3C9010E9480
:10202000B81F0AC080911A02811102C069E201C082
:1020300065E3C9010E94BA1F0E944E1E80E001C0E4
:1020400081E0DF91CF910895CF93DF93EC0181E0A0
:10205000898B8F810E940D1E88850E94201E0E9400
:102060004E1EEA81FB81CE010696309729F06C89DD
:102070007D89DF91CF910994DF91CF910895EF92FF
:10208000FF920F931F93CF93DF93FC0122852111C1
:1020900036C0EC01E380F480F7E5FF1A26E12E9DBF
:1020A000C0012F9D900D1124DC01A45EBE4F14963B
:1020B000ED91FC9115978E5D9E4F309729F05496C7
:1020C0006D917C915597099586E18E9D80018F9D3C
:1020D000100D1124045E1E4FF80187810E94131E0B
:1020E000F80180850E94261E0E944E1E18821986C5
:1020F0001B861E821D8210921C0210921B02DF9111
:10210000CF911F910F91FF90EF900895DF92EF9282
:10211000FF920F931F93CF93DF93FB012281222322
:10212000A1F1209139012F3F81F18C01CCE1D1E067
:10213000E12CF12CDD24D39480913901082E000C80
:10214000990B8E159F050CF18E818823C9F0898526
:102150009A858017910739F480911B0290911C0297
:102160000817190769F0DF861C870B878989811199
:1021700003C0CE010E942410CE0106960E943F109B
:10218000FFEFEF1AFF0A6696D7CFDF91CF911F912D
:102190000F91FF90EF90DF900895EF92FF920F93D1
:1021A0001F93CF93DF939C0137552F3F310511F0DB
:1021B00008F047C040913901042E000C550B42171E
:1021C000530714F420933901FB017C01828196E1CD
:1021D000929F8001939F100D1124E801C45EDE4F91
:1021E000888B92818E81992311F1FA86E9868F5F1F
:1021F0008E830E944C209E878D870E94331E8F8382
:102200000E940A1E88870E941D1E9885892B888738
:10221000E881F981C8018E5D9E4F309719F06C8975
:102220007D890995F0921C02E0921B020AC0882366
:1022300041F08989882329F0C8018E5D9E4F0E9454
:102240003F1081E0DF91CF911F910F91FF90EF90B0
:102250000895CF92DF92EF92FF920F931F93CF9347
:10226000DF93809139018F3F09F442C0F12C86E160
:10227000E82E0F2D10E080913901082E000C990BEB
:1022800080179107ACF1E09EF001E19EF00D112462
:10229000E45EFE4FC288D388C114D10439F460E0F3
:1022A00070E0818592850E946C1B6C01E09EE001CC
:1022B000E19ED00D1124C45EDE4F8E818823B1F0E3
:1022C0008D859E850E946420C816D90678F4898978
:1022D000811103C0CE010E942410E09EC001E19E46
:1022E000900D11248E5D9E4F0E943F10F394C1CF3C
:1022F000DF91CF911F910F91FF90EF90DF90CF90E2
:1023000008958EE14A9B02C08150E1F74A9BFECFBF
:1023100008955A9880E28A95F1F75A9A0895FC0137
:102320002AE02A95F1F790E020E080E031E02617DE
:1023300079F040E14A95F1F7880F4A9B02C081602D
:10234000932700C0000040E14A95F1F72F5FEFCFDF
:1023500020E12A95F1F729B100C0000030E13A955B
:10236000F1F722FB222720F992272081920F9083F8
:102370000895EF92FF920F931F93CF93DF931F92D5
:10238000CDB7DEB719828C017C01E60EF11C0E156B
:102390001F0559F00E94811168E0CE0101960E944C
:1023A0008F11F80181938F01F2CF81E09981911112
:1023B00080E00F90DF91CF911F910F91FF90EF90F0
:1023C000089590931F0280931E0260931D02529AFB
:1023D0005A9A089590931F0280931E0260931D02E3
:1023E00052985A9AEA9AE9E6F0E080818F7C8083DD
:1023F0000895615091E001C0990F6A95EAF720E0D5
:1024000031E0992361F0492F482319F05A9A232784
:1024100001C05A9840E24A95F1F79695F2CF2223EF
:1024200011F05A9A01C05A9880E28A95F1F75A98A9
:102430000895FF920F931F93CF93DF93EC018C01CC
:10244000060F111DC017D10741F0F9900E948911A4
:1024500068E08F2D0E94F911F5CFDF91CF911F9188
:102460000F91FF9008951F920F920FB60F921124B3
:102470000F931F932F933F934F935F936F937F938C
:102480008F939F93AF93BF93EF93FF93CF93DF937C
:102490001F92CDB7DEB719820E94811167E0CE018D
:1024A00001960E948F11382F369536953695932FC9
:1024B00096959570232F2570920F292F237096954E
:1024C00096958770920F891348C08981811145C004
:1024D00080911D02831708F440C080E18A95F1F7CE
:1024E0005A9A529AA2E0AA95F1F700C000911E02F2
:1024F00010911F02B8E03B9F000D111D11245A9846
:10250000F8016581662321F0868197810E94191266
:102510000E948911F0E1FA95F1F75A9852985A9A67
:1025200080E18A95F1F7D80112966C911297662393
:1025300069F013968D919C9114970E94B911D8015E
:10254000ED91FC91811105C082E004C0D801ED91AC
:10255000FC9188E080830E9481110F90DF91CF91E0
:10256000FF91EF91BF91AF919F918F917F916F916B
:102570005F914F913F912F911F910F910F900FBE3F
:102580000F901F9018950F931F93CF93DF93209177
:102590001D0230E0281739070CF471C09C0193E04C
:1025A000220F331F9A95E1F7C0911E02D0911F02AE
:1025B000C20FD31FF894529A5A9845E04A95F1F702
:1025C0000000982F969595708570890F982F9370BD
:1025D00086958695890F8901082B0E94891184E0D0
:1025E0008A95F1F700C067E0802F0E94F91140E161
:1025F0004A95F1F752985A9A4A9902C000C0FCCF06
:1026000087E090E04A9B0EC0019751F4529A5A9A83
:10261000E881F98181E08083789481E090E031C0A5
:1026200000C0F0CF6D81662381F08E819F810E9472
:10263000B91181110AC0529A5A9AE881F98182E04F
:102640008083789482E090E01CC00E94811180E237
:102650008A95F1F75A98529A40E14A95F1F76A81C2
:10266000662321F08B819C810E9419120E9489119E
:10267000E881F9811082789480E090E002C084E0E3
:1026800090E0DF91CF911F910F9108951092B900C2
:102690008CE08093B8000895EF92FF920F931F9300
:1026A000CF93DF93182FEB011092BC0084EA809344
:1026B000BC000E944C207C018091BC0087FD0EC0B4
:1026C000CF3F8FEFD807C1F30E944C208E199F098E
:1026D0008C179D0788F38EEF9FEF2EC08091B90075
:1026E000887F883041F08091B900887F803119F06F
:1026F0008FEF9FEF21C01093BB0084E88093BC0054
:102700000E944C208C018091BC0087FD0CC0CF3F03
:102710008FEFD807C1F30E944C20801B910B8C17C0
:102720009D0788F3D8CF8091B900887F883111F058
:102730008034F1F680E090E0DF91CF911F910F910E
:10274000FF90EF9008950F931F93CF93DF93EB01CA
:102750008093BB0084E88093BC000E944C208C01D5
:102760008091BC0087FD0EC0CF3F8FEFD807C1F32B
:102770000E944C20801B910B8C179D0788F38EEFD5
:102780009FEF0CC02091B900287F81E090E02832B3
:1027900011F480E090E0919581959109DF91CF91BE
:1027A0001F910F910895CF92DF92EF92FF920F93B6
:1027B0001F93CF93DF936B018A017901B9010E94C6
:1027C0004C13E6010C0D1D1DC017D10761F424E95F
:1027D0002093BC00DF91CF911F910F91FF90EF905C
:1027E000DF90CF90089597FDF2CFB70189910E94B5
:1027F000A313EACFCF92DF92EF92FF920F931F9332
:10280000CF93DF93C62F6A017901B8010E944C1360
:1028100097FD11C0B8018C2F0E94A313E601EC0CA8
:10282000FD1CCE15DF0539F097FD05C0B801899173
:102830000E94A313F6CF24E92093BC00DF91CF912F
:102840001F910F91FF90EF90DF90CF90089584E952
:102850008093BC00089590932502809324020895EC
:10286000E0912402F0912502309721F00190F0814F
:10287000E02D099480E00895E0912402F091250272
:10288000309721F00280F381E02D09940895E091C2
:102890002402F0912502309739F022E0DC012C93DC
:1028A0000480F581E02D0994089520912202309151
:1028B00023022817390771F0909323028093220294
:1028C000E0912402F0912502309721F00680F781F3
:1028D000E02D0994089520912002309121022817BB
:1028E000390771F09093210280932002E091240235
:1028F000F0912502309721F00084F185E02D0994B4
:10290000089585B7806885BF85B7806885BF0895BD
:1029100081E008950C94881408950C948C140C9400
:102920008C140C948F140C948C140C9493140C949D
:102930008C140E9481140E9497140C9495140E9488
:1029400043200E94490580E00E941A0B0E94AA20A1
:102950000C9491149F92AF92BF92CF92DF92EF921C
:10296000FF920F931F93CF93DF93CDB7DEB72A97D4
:102970000FB6F894DEBF0FBECDBF0E948D140E942B
:102980008C140E946906C82E0E948A14811111C0FD
:102990008FEF89838A831B820E944C208160782F6D
:1029A0009D838C8349815A816B818D810E944F1553
:1029B00040C087E2A82E82E0B82E00E010E0902E02
:1029C000802F0E94DF06E82EF501D1905F01D82606
:1029D00031F40F5F1F4F0830110589F7D9CF80916F
:1029E0009C0281FD0E94E50680E0FF24F3949D2D6A
:1029F0009F21D1F08E839F82EF2081E009F480E057
:102A000088870E944C208160782F9A8789874E8121
:102A10005F8168858A850E944F15F801E95DFD4F49
:102A20008081F826F08205C08F5FFF0C8630F9F6B2
:102A3000D0CF0E94B00DC1100E94720C0E9459228A
:102A40000E943014909126028917B9F00E94301428
:102A5000809326022A960FB6F894DEBF0FBECDBF34
:102A6000DF91CF911F910F91FF90EF90DF90CF906A
:102A7000BF90AF909F900C940C092A960FB6F894D3
:102A8000DEBF0FBECDBFDF91CF911F910F91FF90A1
:102A9000EF90DF90CF90BF90AF909F900895CF932D
:102AA000DF93CDB7DEB72B970FB6F894DEBF0FBE1E
:102AB000CDBF4F83588769877A878B87DE01119650
:102AC00086E0FD0111928A95E9F785E0FE013796CF
:102AD00001900D928A95E1F749815A816B817C8141
:102AE0008D819E810E946F1B2B960FB6F894DEBFDE
:102AF0000FBECDBFDF91CF910895FC018081918100
:102B00000E94C81D0895CF938823B1F1C82F8CEF80
:102B10008C0F813AD0F46C2F80913A0190913B0157
:102B20000E94821F882349F06C2F80913A01909176
:102B30003B010E94BA1F0E944E1E6C2F80913A01E9
:102B400090913B010E94B81F0CC080E28C0F88302E
:102B500058F4C77081E001C0880FCA95EAF70E9457
:102B60000D1ECF910C944E1EC03F30F08C2F0E9452
:102B70004E21CF910C943B22CF910895882389F167
:102B80009CEF980F913A40F4682F80913A01909110
:102B90003B010E94BA1F0DC090E2980F983058F484
:102BA000877091E001C0990F8A95EAF7892F0E94FA
:102BB000131E0C944E1E9BE5980F933020F480E07A
:102BC00090E00C94551498E5980F973120F480E02C
:102BD00090E00C946B14803F20F00E94B6210C947E
:102BE0003B220895CF93C82F0E948315C93349F41F
:102BF0002FEF87EE93E0215080409040E1F700C036
:102C000000008C2FCF910C94BE15882321F00E94D8
:102C10000D1E0C944E1E0895882321F00E94131E51
:102C20000C944E1E0895CF92DF92EF92FF920F9375
:102C30001F93CF93DF937C01D62FC72FFC01158103
:102C400012951F70028101110E942D1E0E94031E09
:102C5000882399F0002389F08C2F807F803421F025
:102C600080E28D0F883048F082E00E94AF1E0E9403
:102C7000031E91E0D82ED92601C0D12CCC2EC294AF
:102C80008FE0C8228C2D90E08C30910508F0D5C1E2
:102C9000FC01EB59FF4F0C942C2A8C2F807FCF70B6
:102CA000882311F0C295C07F002399F0CC2309F44A
:102CB000AFC180E28D0F883010F0D11104C08C2F8D
:102CC0000E940D1E03C08C2F0E94201E0E944E1ECB
:102CD0009FC18D2F0E94BE15CC2309F4AEC180E2A6
:102CE0008D0F883010F0D11104C08C2F0E94131E5C
:102CF00003C08C2F0E94261E0E944E1E9EC18C2F48
:102D0000807FCF70803211F0C295C07FDD2319F033
:102D1000D13059F134C00023B1F0112381F01130CA
:102D200031F40E94331E8C2B0E943B1E86C1123050
:102D300031F40E94441E8C2F0E94851E38C00E94D0
:102D4000331E8C2B35C0112369F0113041F40E94E1
:102D50000A1E8C2309F471C10E948E1E03C012301A
:102D600009F46BC10E94441E33C0002321F01330CC
:102D700008F063C11CC0123008F05FC129C00023F5
:102D8000D1F01123A1F020E0F7014081518162814F
:102D9000738184810E945B08B7010E94F40781114E
:102DA00037C1F701858180FF33C18F7085838C2FF8
:102DB0000E94051642C1112359F0D93309F03AC1D6
:102DC000FFEF07EE13E0F15000401040E1F730C193
:102DD0008C2F0E940C1631C18D2F002319F00E94F8
:102DE0004E2102C00E94B6210E943B222EC18C2F90
:102DF000837009F047C0011124C12D2F229526951B
:102E00002770220F220F6D2F6F70862F90E0A0E0A9
:102E1000B0E0022E04C0880F991FAA1FBB1F0A949E
:102E2000D2F7D4FF10C04FE050E060E070E004C083
:102E3000440F551F661F771F2A95D2F7409550956E
:102E40006095709503C040E050E0BA01C695C69504
:102E5000C3708A019B01082B192B2A2B3B2BC9011C
:102E6000B801C23049F058F4C13019F00E94431C37
:102E7000E8C00E94311CE5C00E94551CE2C00E94BF
:102E80002F1CDFC0002319F08C2F817001C08695A4
:102E9000882309F4D6C02D2F229526952770220F5E
:102EA000220F6D2F6F70862F90E0A0E0B0E0022E11
:102EB00004C0880F991FAA1FBB1F0A94D2F7D4FF22
:102EC00010C04FE050E060E070E004C0440F551FB8
:102ED000661F771F2A95D2F740955095609570959B
:102EE00003C040E050E0BA01C695C695C3708A01A0
:102EF0009B01082B192B2A2B3B2BC901B801C2308F
:102F000049F058F4C13019F00E94081D9AC00E947F
:102F1000F61C97C00E941A1D94C00E94691C91C0A3
:102F2000CF70002339F08C2F0E948F1C8D2F0E94B0
:102F3000051687C08D2F0E940C168C2F0E94B01C86
:102F400080C0D23F01F128F4D03F41F0D13FA1F041
:102F50005AC0D33FF9F0D43F39F155C0002341F0B6
:102F6000123008F06AC08C2F8F710E94D51C65C08A
:102F7000133008F062C0F7CF002339F08C2F8F7127
:102F80000E948F1C5AC00023C9F38C2F8F710E949E
:102F9000B01C53C0002329F08C2F8F710E947A1C23
:102FA0004CC00E94751C49C00023C9F00E94F61D48
:102FB0000E94131E0E94FF1D843039F40E94AA1E35
:102FC0008C2F8F710E94B01C5BC0123008F058C06B
:102FD000CF718C2F0E948F1C63E08C2F0DC00E943C
:102FE000F61D0E940D1E123050F00E94AA1E0E9473
:102FF0008E1E64E08C2F8F710E949A1E41C081E06A
:103000000E94AF1E3DC0002339F0112309F4B6CF52
:103010008D2F0E94831511C0112309F4B6CFD93327
:1030200049F41FEF27EE33E0115020403040E1F724
:1030300000C000008D2F0E94BE1588EF8C0D8430DB
:1030400020F40E9430140E940C09DD20D9F00E9467
:10305000FF1D80FD17C0F70112820E94F91D0E941A
:103060008F1CC7010E9463180E94F91DDF91CF9148
:103070001F910F91FF90EF90DF90CF900C94B01CB8
:10308000D12CDFCFDF91CF911F910F91FF90EF9067
:10309000DF90CF9008950F931F93CF93DF93EC01B0
:1030A000688179818A810E94D31D8C010E942C1D28
:1030B0000E941D1CB801CE010E941316DF91CF9112
:1030C0001F910F910895CF93DF93EC01988189812F
:1030D0002B813C81232B31F08F3F31F481E09F3FE6
:1030E00019F403C081E001C080E080FD19C0CE0169
:1030F0000E94BE0881110CC00E94031E882381F02B
:103100008A81882369F082E0DF91CF910C94AF1E11
:10311000CE010E944B18CE01DF91CF910C949708FD
:10312000DF91CF910895882321F00E94201E0C94F6
:103130004E1E0895882321F00E94261E0C944E1ED8
:1031400008950E942D1E0E94301E0E944E1E0E9455
:103150006C230C943B2280913A0190913B010E9498
:10316000BC1F0C94A1180E941A1E0C94AB18E92FD6
:10317000E295EF704E2F50E0FA013297EE30F105F4
:10318000B0F4EF58FF4F0C942C2A803F91F018F4C4
:10319000883E68F40EC0843F51F40BC0883E48F06E
:1031A000813F29F406C093FB882780F9089580E0C9
:1031B000089581E008950E94C81D0E94B7180895DF
:1031C000CF93DF9300D000D01F92CDB7DEB70F9022
:1031D0000F900F900F900F90DF91CF910895CF93A4
:1031E000DF9300D000D000D0CDB7DEB726960FB663
:1031F000F894DEBF0FBECDBFDF91CF9108951F932E
:10320000CF93DF93C091300216E080913102C8174E
:1032100099F0D0E01C9FF0011D9FF00D1124EE5C91
:10322000FD4F4081518162817381848195810E942B
:10323000EF182196C770E9CFDF91CF911F910895C4
:103240004091620250916302609164027091650244
:1032500080916602909167020C94EF180F931F9370
:10326000CF93DF938091670282958F7009F05DC0E4
:1032700080916402882309F458C080913002109133
:1032800031026091620270916302C0916502D09137
:10329000660291E06F3F09F090E0292F06E0811768
:1032A00009F443C0209721F07F3F21F030E003C0B4
:1032B00031E001C0322F90E030FD34C0089FF001B2
:1032C000099FF00D1124DF01AE5CBD4F11963C91BA
:1032D0001197371327C03C91361324C012963C91A6
:1032E000129731111FC013964D915C9114974C1B8E
:1032F0005D0B483C5105B0F4809167028F7080618E
:1033000080936702E95CFD4F80818F7080618083CC
:1033100082E692E00E946318DF91CF911F910F9196
:103320000C94FF1801968770BACFDF91CF911F914F
:103330000F9108959F92AF92BF92CF92DF92EF923A
:10334000FF920F931F93CF93DF93CDB7DEB76197B3
:103350000FB6F894DEBF0FBECDBF8C0185E0F8013B
:10336000DE011D9601900D928A95E1F7F8014081EA
:103370005181E28090916202609163022091650226
:10338000309166022115310531F06F3F31F481E053
:103390009F3F19F403C081E001C080E0F82FF17075
:1033A0009F2E80FD46C1F801A380B48082E6C82E1E
:1033B00082E0D82EF0906402F501E21BF30BFF20AF
:1033C00009F4DFC080916702E83CF10508F09BC07A
:1033D000282F207F09F052C0561313C0491311C083
:1033E000FE2CE1100EC08F708061809367020E94F6
:1033F0002019C6010E94631880916702F801858335
:1034000058C1AB2831F05F3F31F481E04F3F19F4F0
:1034100003C081E001C080E080FD03C081E08E2513
:1034200002C080E090E0F82FF170FF2E80FF1CC0FA
:10343000809130022091310236E0821709F417C1E1
:1034400090E0389FF001399FF00D1124EE5CFD4FA4
:103450006181561306C06081461303C06281E61283
:1034600003C001968770E9CFFE2CEE2009F421C13C
:10347000809167028160809367025AC0561306C02C
:10348000491304C0E11002C0F8019FC04D875E8758
:103490008D859E850E94DB18882379F1EE2069F1E5
:1034A00020916702822F82958F7090E0029774F0CE
:1034B000809162029091630298878F831986BB8600
:1034C000AA862C87CE0107960E94631886E0F80131
:1034D000A2E6B2E001900D928A95E1F70E942E19C2
:1034E0000E9420190DC0561729F14D875E878D85E2
:1034F0009E850E94DB1881112CC0C8010E946318B0
:10350000FF24F394D6C0282F207F69F77A2DB98A3B
:10351000A88A6E2D89890E94E01882E692E00E94B6
:10352000631886E0F60111928A95E9F70E94201946
:10353000F12CBFC04913D9CFE110D7CFF801858353
:10354000C8010E94631886E0F60111928A95E9F796
:10355000B0C0EE2091F220916702822F82958F7089
:1035600090E002970CF4B2CF8091620290916302D6
:103570009A8389831B82BD82AC822E83CE01019601
:10358000A3CFE83CF10508F047C0FE2CEE2009F47B
:10359000B4CF561330C049132EC02091670220FDCE
:1035A00021C0822F82958F70482F50E04115510520
:1035B000C9F0F80125834F30510541F08F5F982FF6
:1035C0009295907F822F8F70892B8583C8010E94EE
:1035D000631886E0F801A2E6B2E001900D928A95A8
:1035E000E1F742C086E0F801A2E6B2E001900D9258
:1035F0008A95E1F75EC04D875E878D859E850E9426
:10360000DB18811163CF809167028160809367022C
:10361000C8010E9463184DC07A2DB98AA88A6E2D00
:1036200089890E94E01886E0F60111928A95E9F7EF
:103630001BC0EE2009F461CF4D875E878D859E8586
:103640000E94DB18F82E882309F457CF86E0F80192
:10365000A2E6B2E001900D928A95E1F782E692E04F
:103660000E947D150E942E190E94201922C04D87AC
:103670005E878D859E850E94C81D292F22952F70FB
:10368000223028F49F7039F0811105C00BC024301E
:1036900028F49F7049F4805E883020F0C8010E94B1
:1036A00063189F2CF92C05C0F8019581907F99F73C
:1036B000F9CF8F2D61960FB6F894DEBF0FBECDBF48
:1036C000DF91CF911F910F91FF90EF90DF90CF90FE
:1036D000BF90AF909F90089588EC90E008951F935D
:1036E000CF93DF93CDB7DEB72C970FB6F894DEBF3C
:1036F0000FBECDBF4F83588769877A878B879C879A
:10370000CE0107960E949A198823D1F09F8188855F
:103710002A853B85232B31F08F3F31F481E09F3F99
:1037200019F403C081E001C080E080FD47C04F81F3
:10373000588569857A858B859C850E94EF183EC0E7
:1037400086E0FE013796DE01119601900D928A9572
:10375000E1F7FF81E8856A857B856115710531F0A8
:10376000EF3F31F481E0FF3F19F403C081E001C075
:1037700080E080FD23C02091310230E0C901019634
:10378000877099274091300250E084179507F1F136
:10379000F983EA837D836C8396E0929FD001939FA7
:1037A000B00D1124AE5CBD4FFE01319601900D921B
:1037B0009A95E1F7809331020E94FF1816E08091FC
:1037C000300290913102891771F1189FC0011124C4
:1037D0008E5C9D4F0E949A19882329F1E091300256
:1037E0001E9FF0011124EE5CFD4F408151816281EA
:1037F0007381848195810E94EF188091300290E05E
:1038000001968770992780933002D9CF0E94B31810
:103810001092310210923002E2E6F2E086E0DF011F
:103820001D928A95E9F72C960FB6F894DEBF0FBE6D
:10383000CDBFDF91CF911F910895089508950C9405
:103840001E1C0C941F1C0E94211C60938A02709302
:103850008B0280938C0290938D020C94A1180C948F
:10386000231C0F931F9300918A0210918B022091C9
:103870008C0230918D02602B712B822B932B1F9128
:103880000F910C94231C0F931F9300918A021091A7
:103890008B0220918C0230918D0260237123822350
:1038A00093231F910F910C94231C0F931F9300914E
:1038B0008A0210918B0220918C0230918D02602738
:1038C0007127822793271F910F910C94231C0C942E
:1038D0001E1C0E94671C609386027093870280936F
:1038E0008802909389020C94A11860E070E0CB01EB
:1038F0000C94691C0F931F9341E050E060E070E06E
:103900008A019B0104C0000F111F221F331F8A95DB
:10391000D2F7C901B8011F910F910C94691C0F9344
:103920001F9341E050E060E070E004C0440F551F79
:10393000661F771F8A95D2F7809186029091870241
:10394000A0918802B09189028A019B01082B192B52
:103950002A2B3B2BC901B8011F910F910C94691CB4
:103960000F931F9341E050E060E070E004C0440F0B
:10397000551F661F771F8A95D2F740955095609521
:1039800070958091860290918702A0918802B091F3
:1039900089028A019B01082319232A233B23C90199
:1039A000B8011F910F910C94691C0F931F9341E074
:1039B00050E060E070E004C0440F551F661F771FA1
:1039C0008A95D2F78091860290918702A091880211
:1039D000B09189028A019B01082719272A273B27D2
:1039E000C901B8011F910F910C94691C0F931F938B
:1039F00000918602109187022091880230918902FD
:103A0000602B712B822B932B1F910F910C94691CAF
:103A10000F931F93009186021091870220918802D4
:103A20003091890260237123822393231F910F9188
:103A30000C94691C0F931F930091860210918702CA
:103A4000209188023091890260277127822793276D
:103A50001F910F910C94691C0895292F220F920F2A
:103A6000990F890FE82FE695E695E695877051E066
:103A700001C0550F8A95EAF785E0E89FF00111240F
:103A8000E859FD4F20E030E070E04081CB01022E8C
:103A900002C0969587950A94E2F7817081958427F4
:103AA0008523842781932F5F3F4F2530310569F7A8
:103AB0000895292F220F920F990F890F682F66956D
:103AC00066956695982F977085E0689FB0011124E0
:103AD00040E050E080E0FB01E40FF51FE859FD4FA6
:103AE000208130E0092E02C0369527950A94E2F72E
:103AF00021703327042E01C0220F0A94EAF7822B8B
:103B00004F5F5F4F4530510531F70895BF92CF9217
:103B1000DF92EF92FF920F931F93CF93DF938C016D
:103B2000C0908602D0908702E0908802F0908902CF
:103B300080918A0290918B02A0918C02B0918D02AB
:103B4000C82AD92AEA2AFB2ACFE1D0E0D701C60148
:103B50000C2E04C0B695A795979587950A94D2F731
:103B600080FD04C0219790F7B12C07C0BC2EB8018E
:103B70008C2F0E9428090197A9F38B2DDF91CF91FB
:103B80001F910F91FF90EF90DF90CF90BF9008951D
:103B9000CF93DF93EC010E94861DBE010E9428098D
:103BA000DF91CF9108951F93CF93DF93EB01909115
:103BB0002F02992321F0CB010E94C81D13C0882336
:103BC00049F0CB010E94861D182F682FCE010E945C
:103BD0002D1D04C0CB010E94591D182FBE01812F3D
:103BE0000E942809DF91CF911F91089580918F0243
:103BF000089580918E02859585958595089580918B
:103C00008E028770089590918E02977081E009F47A
:103C100080E0089580919B02089590919B02892BEA
:103C200080939B020895809590919B0289238093B5
:103C30009B02089510929B02089580919A02089524
:103C400090919A02892B80939A0208958095909181
:103C50009A02892380939A02089510929A020895F5
:103C600010929902089580919002089508950C94FD
:103C7000361E0C94371E90919002981721F0809375
:103C800090020C94391E089580919002882329F0A7
:103C90001092900280E00C94391E0895E0913A0150
:103CA000F0913B0180919B028083E0913A01F09179
:103CB0003B01908180919A02892B8083E0913A01A7
:103CC000F0913B01908180919902892B80838091B2
:103CD0009002882381F0E0913A01F0913B019081BC
:103CE000892B808380913A0190913B010E94761F3D
:103CF00081110E94441E80913A0190913B010C94E5
:103D00003C140C94361E0C94811E90918F029817CF
:103D100021F080938F020C94831E089580918F026E
:103D2000882329F010928F0280E00C94831E08955E
:103D30000C94361E98E0899F90011124262B209325
:103D40008E020E948F1C80918E02859585958595A7
:103D50000C94981E10928E0280E00C94981E209174
:103D60008E028095822380938E02982F977079F42B
:103D700030E0482F082E000C550B2417350739F07A
:103D80008595859585950E94B01C0C94AA1E089572
:103D900080E090E00E94112D21E08C3E9E4F09F0C2
:103DA00020E0822F089582E090E00C94092D83E0BA
:103DB00090E00C94092DCF9384E090E00E94092DAF
:103DC000C82F81E290E00E94092D2C2F30E0A9013C
:103DD000582BCA01CF910895CF93C92F682F84E043
:103DE00090E00E94172D6C2F81E290E0CF910C940F
:103DF000172DAB01BC018FE090E00C94292DAB0195
:103E0000BC0183E190E00C94292D60E070E0CB01CF
:103E10000C94FF1E60E070E0CB010E94F91E0C9430
:103E2000051F6CEE7EEF80E090E00E94352D60E093
:103E300082E090E00E94172D60E083E090E00E9415
:103E4000172D10928A0210928B0210928C021092FF
:103E50008D0260E084E090E00E94172D60E081E236
:103E600090E00E94172D60E085E090E00E94172D01
:103E700060E086E090E00E94172D6FEF87E090E011
:103E80000E94172D40E050E0BA0188E090E00E94C7
:103E9000292D60E08DE090E00E94172D40E050E079
:103EA000BA0188E190E00E94292D60E087E190E06E
:103EB0000E94172D40E050E0BA018CE190E00E9492
:103EC000292D60E080E290E00E94172D40E050E054
:103ED000BA0188E190E00E94292D0C940A1F0C94ED
:103EE000111F682F8EE090E00C94172DFC01329684
:103EF00097E080E0915029F021912223D9F38F5F40
:103F0000F9CF0895662349F0FC0132960896219175
:103F1000621729F0E817F907D1F780E0089581E0EA
:103F200008959C01FC0132969FEF80E04191461775
:103F300089F09F3F19F4411101C0982F8F5F86309F
:103F4000A9F79F3F39F0F901E90FF11D97FDFA95A7
:103F50006283089508959C012A5F3F4FFC014281CE
:103F6000461301C01282019682179307B9F708958C
:103F70000C94911F0C94AB1F029626E0FC01119249
:103F80002A95E9F7089508950C94C31F0C94C31F54
:103F9000CF930E94C61F0E9469060E94C41FC0E002
:103FA0008C2F0E94DF06811104C0CF5FC830C1F79B
:103FB00001C081E0CF9108950C94C31F0C94DC1FC5
:103FC0000E94DE1F8091C504843049F110929D0249
:103FD00020E488E190E00FB6F894A8958093600003
:103FE0000FBE2093600080E00E940C090E94DE1F3B
:103FF00083B7817F846083BF83B7816083BF7894F8
:10400000889583B78E7F83BF0FB6F894A89580916B
:104010006000886180936000109260000FBE089578
:104020000C94C31F0E94B3180E9430140E940C0904
:104030000C9410201F920F920FB60F9211248F93A1
:104040009F93AF93BF9380919D02811113C0809184
:10405000BB049091BC04A091BD04B091BE044196F4
:10406000A11DB11D8093BB049093BC04A093BD041B
:10407000B093BE04BF91AF919F918F910F900FBEEF
:104080000F901F90189582E084BD93E095BD9AEF44
:1040900097BD80936E0008952FB7F8948091BB046C
:1040A0009091BC04A091BD04B091BE042FBF0895AF
:1040B0002FB7F8946091BB047091BC048091BD044B
:1040C0009091BE042FBF08959C014FB7F894809142
:1040D000BB049091BC04A091BD04B091BE044FBF3D
:1040E000821B930B089578941F920F920FB60F9234
:1040F00011248F939F93AF93BF938091BB049091B2
:10410000BC04A091BD04B091BE040196A11DB11DD7
:104110008093BB049093BC04A093BD04B093BE04F1
:10412000BF91AF919F918F910F900FBE0F901F90F5
:10413000189587E797E790930108809300089AE025
:1041400088E10FB6F894A895809360000FBE909315
:104150006000FFCF0E94C81E811102C00E946F1F25
:104160000E94D31E80939C020E94DB1E9093C00489
:104170008093BF040E94D71E682F70E080E090E01B
:104180000E942F1C609186027091870280918802A4
:10419000909189020C94671C8091A40280FF0BC04F
:1041A0006091410185E0689FB00111247595679584
:1041B000759567952BC081FF09C06091410185E02D
:1041C000689FB00111247595679520C082FF07C0D4
:1041D0006091410185E0689FB001112417C0909162
:1041E000A3029923D1F060914001961788F720919E
:1041F000410185E0289F90011124929FA001939F87
:10420000500D112470E0CA010E94182A603871050F
:1042100040F46115710519F406C065E070E0862F61
:1042200008958FE7089581E008958091A40280FFAA
:1042300008C060913D0170E075956795759567952B
:1042400021C081FF06C060913D0170E075956795C2
:1042500019C082FF04C060913D0170E010C09091D0
:10426000A202992399F060913C019617A0F78091E2
:104270003D01899FC001112470E00E94182A603816
:10428000710540F46115710519F406C061E070E034
:10429000862F08958FE7089581E00895803F21F4E7
:1042A0000E94CC20819504C0813F29F40E94CC203B
:1042B0008093A8020895823F21F40E94CC2081952A
:1042C00004C0833F29F40E94CC208093A702089564
:1042D000893F19F40E94152105C08A3F31F40E94DC
:1042E000152181958093A90208958B3F21F40E94A6
:1042F0001521819504C08C3F29F40E9415218093DB
:10430000AA020895843F21F48091A602816017C01B
:10431000853F21F48091A602826011C0863F21F47E
:104320008091A60284600BC0873F21F48091A60291
:10433000886005C0883F31F48091A6028061809337
:10434000A60208958D3F21F48091A40281600BC0E4
:104350008E3F21F48091A402826005C08F3F29F432
:104360008091A40284608093A4020895803F39F470
:104370008091A80287FF6AC01092A80267C0813F9F
:1043800029F48091A8021816BCF360C09091A7028E
:10439000823F29F497FF5AC01092A70257C0833F6B
:1043A00019F41916CCF352C09091A902893F31F447
:1043B00019160CF04BC01092A90248C08A3F19F49C
:1043C00097FF44C0F8CF8B3F39F48091AA0287FF52
:1043D0003DC01092AA023AC08C3F29F48091AA02F3
:1043E0001816BCF333C0843F21F48091A6028E7F5F
:1043F00017C0853F21F48091A6028D7F11C0863FB2
:1044000021F48091A6028B7F0BC0873F21F480911D
:10441000A602877F05C0883F31F48091A6028F7E77
:104420008093A60213C08D3F21F48091A4028E7F59
:104430000BC08E3F21F48091A4028D7F05C08F3F79
:1044400029F48091A4028B7F8093A4028091A7021B
:10445000811106C08091A802811102C01092A302AE
:104460008091A902811106C08091AA02811102C027
:104470001092A20208950E944C202091A7022111BF
:1044800004C02091A802222321F09093A1028093DE
:10449000A0022091A902211104C02091AA02222386
:1044A00021F090939F0280939E0285EA92E00C9403
:1044B0004714EF92FF920F931F93CF93DF9300D097
:1044C00000D000D0CDB7DEB786E0E5EAF2E0DE014D
:1044D000119601900D928A95E1F7E090A702F09075
:1044E000A8020091A9021091AA021092A7021092AC
:1044F000A8021092A9021092AA02E11003C0FF20A4
:1045000009F45DC08091A0029091A1020E946420F4
:10451000AC019091A302992339F02091420130E03F
:104520002417350758F04BC0209143018AE0289F9B
:10453000900111242417350718F041C09F3F19F04E
:104540009F5F9093A302EE2061F00E94CC201E1486
:1045500014F09FEF01C091E0989F902D112490934B
:10456000A702FF2061F00E94CC201F1414F09FEFDF
:1045700001C091E0989F902D11249093A802309152
:10458000A7023323E1F02091A8022223C1F045EBDA
:104590003403C0011124992319F09093A70203C09A
:1045A00081E08093A70235EB2303C00111249923F6
:1045B00019F09093A80203C081E08093A802011132
:1045C00003C0112309F45DC080919E0290919F0267
:1045D0000E946420AC019091A202992339F02091AD
:1045E0003E0130E02417350758F04BC020913F01C1
:1045F0008AE0289F900111242417350718F041C044
:104600009F3F19F09F5F9093A202002361F00E94E8
:104610001521101614F09FEF01C091E0989F902D86
:1046200011249093A902112361F00E941521111603
:1046300014F09FEF01C091E0989F902D112490936A
:10464000AA023091A9023323E1F02091AA02222389
:10465000C1F045EB3403C0011124992319F0909364
:10466000A90203C081E08093A90235EB2303C001B6
:104670001124992319F09093AA0203C081E080933A
:10468000AA028091A70281110BC08091A80281111A
:1046900007C08091A902811103C08091AA028111F3
:1046A0000E943B22EB82FC820D831E8386E0FE018A
:1046B0003196A5EAB2E001900D928A95E1F726962F
:1046C0000FB6F894DEBF0FBECDBFDF91CF911F9123
:1046D0000F91FF90EF900895E5EAF2E086E0DF01A8
:1046E0001D928A95E9F71092A3021092A2021092ED
:1046F000A40208958091B3020895089522E02093C2
:10470000E9002FEF3091E800215035FD06C035ED6E
:104710003A95F1F700002111F5CF2091E80025FF2F
:104720000BC040E050E066E070E00E945A258091A6
:10473000E8008E778093E8000895CF93DF9321E01F
:104740002093E9002FEF3091E800215035FD06C09D
:1047500035ED3A95F1F700002111F5CF2091E800F1
:1047600025FF14C0EC0140E050E068E070E00E94DA
:104770005A258091E8008E778093E80088E0FE015A
:10478000ABEAB2E001900D928A95E1F7DF91CF910B
:10479000089508958091C404811109C00E94EB26F8
:1047A0000E9448278091E20084608093E20008958F
:1047B0001092C4040895089508950C94122042E0C4
:1047C00061EC81E00E94642642E261EC82E00C949C
:1047D00064268091C704833009F460C030F48130CE
:1047E00071F0823009F499C008958A3009F485C0C7
:1047F0008B3009F46BC0893009F0A7C020C08091CC
:10480000C604813A09F0A1C08091E800877F8093B7
:10481000E8008091CA049091CB04892B21F468E0D0
:104820008BEA92E003C060E080E090E070E00E94DC
:10483000A5258091E8008B778093E800089580910A
:10484000C604813209F081C08091CA049091CB04E2
:10485000029708F07AC08091E800877F8093E80093
:104860008091E80082FD05C08091C5048111F8CFD8
:104870006CC02091F3008091F20090E0922B02979F
:1048800029F48091F1008B7F813021F48091F10037
:104890008093B3028091E8008B7753C08091C60467
:1048A000813A09F052C08091CA049091CB04892BBF
:1048B00009F04BC08091E800877F8093E8008091E9
:1048C000E80080FFFCCF80914E0136C08091C60485
:1048D0008132D9F58091CA049091CB04892BA9F536
:1048E0008091E800877F8093E8000E94992680915C
:1048F000C80480934E010C94B3188091C604813291
:1049000021F58091E800877F8093E8000E94992636
:104910008091C9048093B40208958091C604813ABD
:10492000A1F48091E800877F8093E8008091E800FF
:1049300080FFFCCF8091B4028093F1008091E80069
:104940008E778093E8000C949926089584B7877F2A
:1049500084BF0FB6F894A895809160008861809319
:104960006000109260000FBE90E080E80FB6F894EF
:1049700080936100909361000FBE0E9499140E9481
:10498000EB260E9448278091E20084608093E20039
:1049900078940E94DD290E949F1484E491E00E9493
:1049A0002B148091C504853069F40E94E01F80912A
:1049B000C3048823B1F30E94C81F882391F30E9487
:1049C0004425EFCF0E94AA140E948D140E948C14DB
:1049D000E8CF0C94EB24292F332723303105C9F07D
:1049E00060F42130310581F02230310509F044C0F6
:1049F0008BE390E029EB38E043C021323105E1F050
:104A00002232310549F138C082E190E024EF38E0EC
:104A100037C099278130910549F028F0029761F558
:104A2000E9E5F8E005C0E5EBF8E002C0E3EAF8E00C
:104A3000849190E09F0124C06115710541F06130BF
:104A40007105D1F489E090E024EE38E019C089E0E6
:104A500090E02BEC38E014C06115710541F0613035
:104A6000710551F48FE490E026E039E009C080E45C
:104A700090E025E539E004C080E090E020E030E0FF
:104A8000FA0131832083089580E189BD82E189BDE7
:104A900009B400FEFDCF8091D8008F7D8093D800AF
:104AA0008091E00082608093E0008091E00081FDD1
:104AB000FCCF0895CF92DF92EF92FF920F931F9356
:104AC000CF93DF93EC018B017A010E94B82681110C
:104AD00033C0E114F10439F0F70180819181081BA2
:104AE000190BC80FD91FC12CD12C0115110519F1B3
:104AF0008091E80085FD16C08091E8008E77809354
:104B0000E800E114F10449F0F70180819181C80EB9
:104B1000D91ED182C08285E00FC00E94B8268823AA
:104B200021F30AC089918093F10001501109FFEF30
:104B3000CF1ADF0ADACF80E0DF91CF911F910F917A
:104B4000FF90EF90DF90CF9008952091CC043091AA
:104B5000CD042617370748F06115710539F4209107
:104B6000E8002E772093E80001C0B901FC0120E0A5
:104B70006115710579F18091C5048823F1F18530C3
:104B8000F1F18091E80083FD3CC08091E80082FD56
:104B90002EC08091E80080FFEBCF2091F300809140
:104BA000F20090E0922B6115710551F0883091056B
:104BB00038F421912093F100615071090196F3CFEF
:104BC00021E0089709F020E08091E8008E7780933B
:104BD000E800CECF2111CFCF0AC08091C504882331
:104BE00061F0853061F08091E80083FD0AC080911A
:104BF000E80082FFF2CF80E0089582E0089583E02C
:104C0000089581E008952091CC043091CD042617B9
:104C1000370748F06115710539F42091E8002E77C7
:104C20002093E80001C0B901FC0120E06115710585
:104C300091F18091C504882309F440C0853009F4BE
:104C40003FC08091E80083FD3DC08091E80082FD77
:104C50002FC08091E80080FFE9CF2091F300809180
:104C6000F20090E0922B6115710559F088309105A2
:104C700040F424912093F10031966150710901961E
:104C8000F2CF21E0089709F020E08091E8008E77CC
:104C90008093E800CBCF2111CCCF0AC08091C5040E
:104CA000882361F0853061F08091E80083FD0AC0BF
:104CB0008091E80082FFF2CF80E0089582E00895BD
:104CC00083E0089581E00895982F973068F59093D8
:104CD000E900981739F07091EC002091ED005091A7
:104CE000F00003C0242F762F50E021FD02C09F5F0B
:104CF000ECCF3091EB003E7F3093EB003091ED0034
:104D00003D7F3093ED003091EB0031603093EB004C
:104D10007093EC002093ED005093F0002091EE0092
:104D200027FDE5CF80E008958F708093E90081E052
:104D300008958091C60487FF11C08091E80082FD2C
:104D400005C08091C5048111F8CF11C08091E800A1
:104D50008B770BC08091C504882349F08091E800CF
:104D600080FFF8CF8091E8008E778093E800089567
:104D70002091E4003091E50095E64091EC00842F0D
:104D8000817040FF23C08091E80080FD1DC08091AC
:104D9000C504882399F0853099F08091EB0085FD5A
:104DA00011C04091E4005091E5002417350729F324
:104DB000915011F09A01E1CF84E0089582E00895C6
:104DC00083E0089581E0089580E008954091E8002F
:104DD00042FFDDCF08950E9459270E946127E0EE2F
:104DE000F0E0808181608083E8EDF0E080818F7762
:104DF000808319BCA7EDB0E08C918E7F8C9380816D
:104E00008F7E80831092C40408950F931F93CF93D5
:104E1000DF930E9459270E946127C8EDD0E0888166
:104E20008F77888388818068888388818F7D888355
:104E300019BC1092C5041092C1041092C3041092C0
:104E4000C20400EE10E0F80180818B7F80838881AE
:104E50008160888342E060E080E00E946426E1EEA9
:104E6000F0E080818E7F8083E2EEF0E080818160DF
:104E70008083808188608083F80180818E7F808339
:104E8000888180618883DF91CF911F910F91089570
:104E9000E8EDF0E080818F7E8083E7EDF0E08081B7
:104EA0008160808384E082BF81E08093C4040C949D
:104EB0000527E8EDF0E080818E7F80831092E2008C
:104EC00008951092DA001092E10008951F920F9257
:104ED0000FB60F9211242F933F934F935F936F93CD
:104EE0007F938F939F93AF93BF93EF93FF938091A3
:104EF000E10082FF0BC08091E20082FF07C0809139
:104F0000E1008B7F8093E1000E94DC298091DA0030
:104F100080FF1FC08091D80080FF1BC08091DA0005
:104F20008E7F8093DA008091D90080FF0DC080E1F0
:104F300089BD82E189BD09B400FEFDCF81E0809387
:104F4000C5040E94CA2305C019BC1092C5040E9462
:104F5000D8238091E10080FF19C08091E20080FF9A
:104F600015C08091E2008E7F8093E2008091E20084
:104F700080618093E2008091D80080628093D800A5
:104F800019BC85E08093C5040E94DC238091E10078
:104F900084FF30C08091E20084FF2CC080E189BD95
:104FA00082E189BD09B400FEFDCF8091D8008F7DDC
:104FB0008093D8008091E1008F7E8093E100809102
:104FC000E2008F7E8093E2008091E2008160809316
:104FD000E2008091C104882311F084E007C0809131
:104FE000E30087FD02C081E001C083E08093C50437
:104FF0000E94DD238091E10083FF29C08091E200BF
:1050000083FF25C08091E100877F8093E10082E0EB
:105010008093C5041092C1048091E1008E7F80933B
:10502000E1008091E2008E7F8093E2008091E200B7
:1050300080618093E20042E060E080E00E946426AC
:105040008091F00088608093F0000E94DB23FF9144
:10505000EF91BF91AF919F918F917F916F915F91F0
:105060004F913F912F910F900FBE0F901F90189569
:105070001F920F920FB60F9211242F933F934F93CD
:105080005F936F937F938F939F93AF93BF93CF93D0
:10509000DF93EF93FF93C091E900CF708091EC0014
:1050A000D82FD17080FDD0E81092E9008091F000F7
:1050B000877F8093F00078940E947C281092E9000A
:1050C0008091F00088608093F000CD2BCF70C0936A
:1050D000E900FF91EF91DF91CF91BF91AF919F9147
:1050E0008F917F916F915F914F913F912F910F9091
:1050F0000FBE0F901F9018951F93CF93DF93CDB7DE
:10510000DEB7AA970FB6F894DEBF0FBECDBFE6ECB0
:10511000F4E08091F100819324E0EE3CF207C9F7BE
:105120000E94E9238091E80083FF2EC18091C6048C
:105130009091C704492F50E04A30510508F024C12E
:10514000FA01E158FF4F0C942C2A803821F0823864
:1051500009F01AC108C08091C2049091C304992338
:1051600089F082600FC08091CA048F70873008F088
:105170000BC18093E9008091EB0085FB882780F9C3
:105180001092E9009091E800977F9093E800809357
:10519000F1001092F100D1C0282F2D7F09F0F4C04A
:1051A000882319F0823061F0EFC08091C80481300B
:1051B00009F0EAC0933009F080E08093C3042EC068
:1051C0008091C80481112AC08091CA048F702FEF8A
:1051D000280F263008F0D8C08093E9002091EB001A
:1051E00020FF1CC0933021F48091EB00806214C03A
:1051F0009091EB0090619093EB0021E030E0A901E9
:1052000002C0440F551F8A95E2F74093EA001092BE
:10521000EA008091EB0088608093EB001092E90037
:105220008091E800877F8093E8000E949926ACC0B7
:105230008111AAC01091C8041F778091E300807883
:10524000812B8093E3008091E800877F8093E800C2
:105250000E9499268091E80080FFFCCF8091E300B6
:1052600080688093E300111102C082E001C083E0F6
:105270008093C50489C08058823008F085C0809131
:10528000C8049091C9048C3D53E0950779F583E0FB
:105290008A838AE289834FB7F894DE01139620E06F
:1052A0003EE051E2E32FF0E050935700E49120FFFD
:1052B00003C0E295EF703F5FEF708E2F90E0EA3011
:1052C00010F0C79601C0C0968D939D932F5F243137
:1052D00049F74FBF8091E800877F8093E8006AE23A
:1052E00070E0CE0101960E94A52516C06091CA0407
:1052F0007091CB04AE014F5F5F4F0E94E924BC0167
:10530000892B09F441C09091E800977F9093E800C1
:1053100089819A810E9403268091E8008B7780938F
:10532000E80032C0803881F58091E800877F809363
:10533000E8008091C1048093F1008091E8008E77AD
:1053400072CF811121C08091C8049091C90499271E
:105350000297D4F48091E800877F8093E8008091E1
:10536000C8048093C1040E9499268091C1048111D0
:1053700006C08091E30087FD02C081E001C084E0A7
:105380008093C5040E94DF238091E80083FF0AC058
:105390008091E800877F8093E8008091EB00806235
:1053A0008093EB00AA960FB6F894DEBF0FBECDBF78
:1053B000DF91CF911F9108950895CF938091C504F7
:1053C0008823A1F0C091E900CF709091EC00892F63
:1053D000817090FD80E8C82B1092E9008091E80070
:1053E00083FD0E947C28CF70C093E900CF9108957F
:1053F000991B79E004C0991F961708F0961B881F27
:105400007A95C9F780950895AA1BBB1B51E107C087
:10541000AA1FBB1FA617B70710F0A61BB70B881F44
:10542000991F5A95A9F780959095BC01CD010895D3
:1054300097FB072E16F4009407D077FD09D00E9441
:10544000042A07FC05D03EF4909581959F4F08955E
:10545000709561957F4F0895EE0FFF1F0590F491B1
:10546000E02D0994FB01DC0102C005900D92415032
:105470005040D8F70895FB01DC0104C08D910190E4
:10548000801921F441505040C8F7881B990B0895AA
:10549000AEE0B0E0EEE4FAE20C94592D0D891E89DD
:1054A0008F89988D26E02C831A83098397FF02C089
:1054B00080E090E801979E838D83AE01455E5F4F4B
:1054C000698D7A8DCE0101960E94782A4D815E8188
:1054D00057FD0AC02F813885421753070CF49A01F3
:1054E000F801E20FF31F10822E96E4E00C94752D64
:1054F000ABE0B0E0EEE7FAE20C944B2D6C017B01DF
:105500008A01FC0117821682838181FFCCC1CE0102
:1055100001963C01F6019381F70193FD859193FF7C
:1055200081917F01882309F4BAC1853239F493FD52
:10553000859193FF81917F01853229F4B60190E036
:105540000E946F2CE7CF912C212C312CFFE1F31519
:10555000D8F08B3279F038F4803279F08332A1F4CC
:10556000232D20611DC08D3261F0803369F4232D1D
:10557000216016C0832D8260382EE32DE4603E2E1C
:105580002AC0F32DF8601DC037FC2DC020ED280F78
:105590002A3040F08E32B9F436FC81C1232D2064CC
:1055A000322E19C036FE06C08AE0989E200D1124C6
:1055B000922E11C0EAE02E9E200D1124222EF32DF2
:1055C000F0623F2E08C08C3621F4832D8068382E7F
:1055D00002C0883641F4F70193FD859193FF8191D4
:1055E0007F018111B3CF982F9F7D9554933028F47C
:1055F0000C5F1F4F9FE399830DC0833631F08337D3
:1056000071F0833509F059C021C0F8018081898388
:105610000E5F1F4F88248394912C530113C02801DF
:10562000F2E04F0E511CF801A080B18036FE03C09D
:10563000692D70E002C06FEF7FEFC5010E94642CFE
:105640004C018201F32DFF773F2E16C0280122E086
:10565000420E511CF801A080B18036FE03C0692DB6
:1056600070E002C06FEF7FEFC5010E94592C4C0122
:10567000F32DF0683F2E820133FC1BC0822D90E099
:1056800088169906B0F4B60180E290E00E946F2C73
:105690002A94F4CFF50137FC859137FE81915F01A3
:1056A000B60190E00E946F2C21102A9421E0821A0A
:1056B00091088114910471F7E8C0843611F089369D
:1056C00041F5F80137FE07C06081718182819381C5
:1056D0000C5F1F4F08C060817181072E000C880B82
:1056E000990B0E5F1F4FF32DFF763F2E97FF09C0DA
:1056F00090958095709561957F4F8F4F9F4FF06883
:105700003F2E2AE030E0A3010E94AB2C882E8618A1
:1057100045C0853731F4232D2F7EB22E2AE030E0AC
:1057200025C0932D997FB92E8F36C1F018F4883596
:1057300079F0B5C0803719F0883721F0B0C0E92F73
:10574000E061BE2EB4FE0DC0FB2DF460BF2E09C07B
:1057500034FE0AC0292F2660B22E06C028E030E0B1
:1057600005C020E130E002C020E132E0F801B7FEE0
:1057700007C060817181828193810C5F1F4F06C0D9
:105780006081718180E090E00E5F1F4FA3010E9455
:10579000AB2C882E8618FB2DFF773F2E36FE0DC0D2
:1057A000232D2E7FA22E891458F434FE0BC032FC18
:1057B00009C0832D8E7EA82E05C0B82CA32C03C053
:1057C000B82C01C0B92CA4FE0FC0FE01E80DF11DDC
:1057D0008081803321F49A2D997EA92E09C0A2FEE2
:1057E00006C0B394B39404C08A2D867809F0B394AC
:1057F000A3FC11C0A0FE06C0B21488F4280C922CA1
:105800009B180EC0B21460F4B60180E290E00E94D2
:105810006F2CB394F7CFB21418F42B1802C0982C45
:10582000212CA4FE10C0B60180E390E00E946F2CF2
:10583000A2FE17C0A1FC03C088E790E002C088E583
:1058400090E0B6010CC08A2D867859F0A1FE02C006
:105850008BE201C080E2A7FC8DE2B60190E00E94DD
:105860006F2C891438F4B60180E390E00E946F2C0D
:105870009A94F7CF8A94F301E80DF11D8081B60167
:1058800090E00E946F2C8110F5CF222009F442CEC7
:10589000B60180E290E00E946F2C2A94F6CFF601C8
:1058A0008681978102C08FEF9FEF2B96E2E10C94E7
:1058B000672DFC010590615070400110D8F780956C
:1058C00090958E0F9F1F0895FC01615070400190CC
:1058D0000110D8F7809590958E0F9F1F08950F9314
:1058E0001F93CF93DF93FB01238121FD03C08FEF33
:1058F0009FEF2CC022FF16C046815781248135813D
:105900004217530744F4A081B1819D012F5F3F4F9F
:10591000318320838C93268137812F5F3F4F3783DC
:10592000268314C08B01EC01FB010084F185E02D7E
:105930000995892BE1F6D80116968D919C911797C0
:10594000019617969C938E931697CE01DF91CF9177
:105950001F910F910895FA01AA27283051F12031A3
:1059600081F1E8946F936E7F6E5F7F4F8F4F9F4FF3
:10597000AF4FB1E03ED0B4E03CD0670F781F891F35
:105980009A1FA11D680F791F8A1F911DA11D6A0F03
:10599000711D811D911DA11D20D009F468943F91B6
:1059A0002AE0269F11243019305D3193DEF6CF01B5
:1059B0000895462F4770405D4193B3E00FD0C9F77B
:1059C000F6CF462F4F70405D4A3318F0495D31FDE8
:1059D0004052419302D0A9F7EACFB4E0A69597953B
:1059E000879577956795BA95C9F700976105710511
:1059F00008959B01AC010A2E06945795479537955B
:105A00002795BA95C9F7620F731F841F951FA01DB4
:105A10000895F999FECF92BD81BDF89A992780B576
:105A20000895A8E1B0E042E050E00C943D2D262F0F
:105A3000F999FECF92BD81BDF89A019700B4021684
:105A400039F01FBA20BD0FB6F894FA9AF99A0FBE32
:105A500008950396272F0E94182D0E94172D252F99
:105A60000E94182D242F0C94182D0196272F0E9488
:105A7000182D0C94172DDC01CB01FC01F999FECFF8
:105A800006C0F2BDE1BDF89A319600B40D924150C6
:105A90005040B8F708952F923F924F925F926F92C5
:105AA0007F928F929F92AF92BF92CF92DF92EF92AE
:105AB000FF920F931F93CF93DF93CDB7DEB7CA1B2F
:105AC000DB0B0FB6F894DEBF0FBECDBF09942A885A
:105AD000398848885F846E847D848C849B84AA8402
